{
  "contractName": "DummyOracle",
  "abi": [
    {
      "inputs": [
        {
          "internalType": "int256",
          "name": "_value",
          "type": "int256"
        }
      ],
      "payable": false,
      "stateMutability": "nonpayable",
      "type": "constructor"
    },
    {
      "constant": false,
      "inputs": [
        {
          "internalType": "int256",
          "name": "_value",
          "type": "int256"
        }
      ],
      "name": "set",
      "outputs": [],
      "payable": false,
      "stateMutability": "nonpayable",
      "type": "function"
    },
    {
      "constant": true,
      "inputs": [],
      "name": "latestAnswer",
      "outputs": [
        {
          "internalType": "int256",
          "name": "",
          "type": "int256"
        }
      ],
      "payable": false,
      "stateMutability": "view",
      "type": "function"
    }
  ],
  "bytecode": "0x608060405234801561001057600080fd5b506040516101373803806101378339818101604052602081101561003357600080fd5b81019080805190602001909291905050506100538161005960201b60201c565b50610063565b8060008190555050565b60c6806100716000396000f3fe6080604052348015600f57600080fd5b506004361060325760003560e01c806350d25bcd146037578063e5c19b2d146053575b600080fd5b603d607e565b6040518082815260200191505060405180910390f35b607c60048036036020811015606757600080fd5b81019080803590602001909291905050506087565b005b60008054905090565b806000819055505056fea265627a7a72315820a505b3e629501983a1443d1c6aa92924acc635fb188e595bed577d608ae9deda64736f6c63430005100032",
  "source": "pragma solidity >=0.4.24;\n\ncontract DummyOracle {\n    int value;\n\n    constructor(int _value) public {\n        set(_value);\n    }\n\n    function set(int _value) public {\n        value = _value;\n    }\n\n    function latestAnswer() public view returns(int256) {\n        return value;\n    }\n}\n",
  "sourcePath": "/home/ubuntu/mikec/ethregistrar/contracts/DummyOracle.sol",
  "compiler": {
    "name": "solc",
    "version": "0.5.16+commit.9c3226ce.Emscripten.clang"
  },
  "schemaVersion": "3.3.3",
  "updatedAt": "2021-01-27T15:22:01.629Z",
  "devdoc": {
    "methods": {}
  },
  "userdoc": {
    "methods": {}
  }
}