{
  "contractName": "ReverseRegistrar",
  "abi": [
    {
      "inputs": [
        {
          "internalType": "contract ENS",
          "name": "ensAddr",
          "type": "address"
        },
        {
          "internalType": "contract NameResolver",
          "name": "resolverAddr",
          "type": "address"
        }
      ],
      "payable": false,
      "stateMutability": "nonpayable",
      "type": "constructor"
    },
    {
      "constant": true,
      "inputs": [],
      "name": "ADDR_REVERSE_NODE",
      "outputs": [
        {
          "internalType": "bytes32",
          "name": "",
          "type": "bytes32"
        }
      ],
      "payable": false,
      "stateMutability": "view",
      "type": "function"
    },
    {
      "constant": true,
      "inputs": [],
      "name": "defaultResolver",
      "outputs": [
        {
          "internalType": "contract NameResolver",
          "name": "",
          "type": "address"
        }
      ],
      "payable": false,
      "stateMutability": "view",
      "type": "function"
    },
    {
      "constant": true,
      "inputs": [],
      "name": "ens",
      "outputs": [
        {
          "internalType": "contract ENS",
          "name": "",
          "type": "address"
        }
      ],
      "payable": false,
      "stateMutability": "view",
      "type": "function"
    },
    {
      "constant": false,
      "inputs": [
        {
          "internalType": "address",
          "name": "owner",
          "type": "address"
        }
      ],
      "name": "claim",
      "outputs": [
        {
          "internalType": "bytes32",
          "name": "",
          "type": "bytes32"
        }
      ],
      "payable": false,
      "stateMutability": "nonpayable",
      "type": "function"
    },
    {
      "constant": false,
      "inputs": [
        {
          "internalType": "address",
          "name": "owner",
          "type": "address"
        },
        {
          "internalType": "address",
          "name": "resolver",
          "type": "address"
        }
      ],
      "name": "claimWithResolver",
      "outputs": [
        {
          "internalType": "bytes32",
          "name": "",
          "type": "bytes32"
        }
      ],
      "payable": false,
      "stateMutability": "nonpayable",
      "type": "function"
    },
    {
      "constant": false,
      "inputs": [
        {
          "internalType": "string",
          "name": "name",
          "type": "string"
        }
      ],
      "name": "setName",
      "outputs": [
        {
          "internalType": "bytes32",
          "name": "",
          "type": "bytes32"
        }
      ],
      "payable": false,
      "stateMutability": "nonpayable",
      "type": "function"
    },
    {
      "constant": true,
      "inputs": [
        {
          "internalType": "address",
          "name": "addr",
          "type": "address"
        }
      ],
      "name": "node",
      "outputs": [
        {
          "internalType": "bytes32",
          "name": "",
          "type": "bytes32"
        }
      ],
      "payable": false,
      "stateMutability": "pure",
      "type": "function"
    }
  ],
  "bytecode": "0x608060405234801561001057600080fd5b50604051610e11380380610e118339818101604052604081101561003357600080fd5b810190808051906020019092919080519060200190929190505050816000806101000a81548173ffffffffffffffffffffffffffffffffffffffff021916908373ffffffffffffffffffffffffffffffffffffffff16021790555080600160006101000a81548173ffffffffffffffffffffffffffffffffffffffff021916908373ffffffffffffffffffffffffffffffffffffffff16021790555060008060009054906101000a900473ffffffffffffffffffffffffffffffffffffffff1673ffffffffffffffffffffffffffffffffffffffff166302571be37f91d1777781884d03a6757a803996e38de2a42967fb37eeaca72729271025a9e260001b6040518263ffffffff1660e01b81526004018082815260200191505060206040518083038186803b15801561016657600080fd5b505afa15801561017a573d6000803e3d6000fd5b505050506040513d602081101561019057600080fd5b81019080805190602001909291905050509050600073ffffffffffffffffffffffffffffffffffffffff168173ffffffffffffffffffffffffffffffffffffffff1614610293578073ffffffffffffffffffffffffffffffffffffffff16631e83409a336040518263ffffffff1660e01b8152600401808273ffffffffffffffffffffffffffffffffffffffff1673ffffffffffffffffffffffffffffffffffffffff168152602001915050602060405180830381600087803b15801561025657600080fd5b505af115801561026a573d6000803e3d6000fd5b505050506040513d602081101561028057600080fd5b8101908080519060200190929190505050505b505050610b6c806102a56000396000f3fe608060405234801561001057600080fd5b506004361061007d5760003560e01c80637cf8a2eb1161005b5780637cf8a2eb1461019c578063828eab0e146101ba578063bffbe61c14610204578063c47f00271461025c5761007d565b80630f5a5466146100825780631e83409a146100fa5780633f15457f14610152575b600080fd5b6100e46004803603604081101561009857600080fd5b81019080803573ffffffffffffffffffffffffffffffffffffffff169060200190929190803573ffffffffffffffffffffffffffffffffffffffff16906020019092919050505061032b565b6040518082815260200191505060405180910390f35b61013c6004803603602081101561011057600080fd5b81019080803573ffffffffffffffffffffffffffffffffffffffff1690602001909291905050506108b0565b6040518082815260200191505060405180910390f35b61015a6108c4565b604051808273ffffffffffffffffffffffffffffffffffffffff1673ffffffffffffffffffffffffffffffffffffffff16815260200191505060405180910390f35b6101a46108e9565b6040518082815260200191505060405180910390f35b6101c2610910565b604051808273ffffffffffffffffffffffffffffffffffffffff1673ffffffffffffffffffffffffffffffffffffffff16815260200191505060405180910390f35b6102466004803603602081101561021a57600080fd5b81019080803573ffffffffffffffffffffffffffffffffffffffff169060200190929190505050610936565b6040518082815260200191505060405180910390f35b6103156004803603602081101561027257600080fd5b810190808035906020019064010000000081111561028f57600080fd5b8201836020820111156102a157600080fd5b803590602001918460018302840111640100000000831117156102c357600080fd5b91908080601f016020809104026020016040519081016040528093929190818152602001838380828437600081840152601f19601f820116905080830192505050505050509192919290505050610999565b6040518082815260200191505060405180910390f35b60008061033733610acd565b905060007f91d1777781884d03a6757a803996e38de2a42967fb37eeaca72729271025a9e260001b82604051602001808381526020018281526020019250505060405160208183030381529060405280519060200120905060008060009054906101000a900473ffffffffffffffffffffffffffffffffffffffff1673ffffffffffffffffffffffffffffffffffffffff166302571be3836040518263ffffffff1660e01b81526004018082815260200191505060206040518083038186803b15801561040357600080fd5b505afa158015610417573d6000803e3d6000fd5b505050506040513d602081101561042d57600080fd5b81019080805190602001909291905050509050600073ffffffffffffffffffffffffffffffffffffffff168573ffffffffffffffffffffffffffffffffffffffff161415801561055557506000809054906101000a900473ffffffffffffffffffffffffffffffffffffffff1673ffffffffffffffffffffffffffffffffffffffff16630178b8bf836040518263ffffffff1660e01b81526004018082815260200191505060206040518083038186803b1580156104ea57600080fd5b505afa1580156104fe573d6000803e3d6000fd5b505050506040513d602081101561051457600080fd5b810190808051906020019092919050505073ffffffffffffffffffffffffffffffffffffffff168573ffffffffffffffffffffffffffffffffffffffff1614155b15610761573073ffffffffffffffffffffffffffffffffffffffff168173ffffffffffffffffffffffffffffffffffffffff16146106a0576000809054906101000a900473ffffffffffffffffffffffffffffffffffffffff1673ffffffffffffffffffffffffffffffffffffffff166306ab59237f91d1777781884d03a6757a803996e38de2a42967fb37eeaca72729271025a9e260001b85306040518463ffffffff1660e01b8152600401808481526020018381526020018273ffffffffffffffffffffffffffffffffffffffff1673ffffffffffffffffffffffffffffffffffffffff1681526020019350505050602060405180830381600087803b15801561066057600080fd5b505af1158015610674573d6000803e3d6000fd5b505050506040513d602081101561068a57600080fd5b8101908080519060200190929190505050503090505b6000809054906101000a900473ffffffffffffffffffffffffffffffffffffffff1673ffffffffffffffffffffffffffffffffffffffff16631896f70a83876040518363ffffffff1660e01b8152600401808381526020018273ffffffffffffffffffffffffffffffffffffffff1673ffffffffffffffffffffffffffffffffffffffff16815260200192505050600060405180830381600087803b15801561074857600080fd5b505af115801561075c573d6000803e3d6000fd5b505050505b8573ffffffffffffffffffffffffffffffffffffffff168173ffffffffffffffffffffffffffffffffffffffff16146108a4576000809054906101000a900473ffffffffffffffffffffffffffffffffffffffff1673ffffffffffffffffffffffffffffffffffffffff166306ab59237f91d1777781884d03a6757a803996e38de2a42967fb37eeaca72729271025a9e260001b85896040518463ffffffff1660e01b8152600401808481526020018381526020018273ffffffffffffffffffffffffffffffffffffffff1673ffffffffffffffffffffffffffffffffffffffff1681526020019350505050602060405180830381600087803b15801561086757600080fd5b505af115801561087b573d6000803e3d6000fd5b505050506040513d602081101561089157600080fd5b8101908080519060200190929190505050505b81935050505092915050565b60006108bd82600061032b565b9050919050565b6000809054906101000a900473ffffffffffffffffffffffffffffffffffffffff1681565b7f91d1777781884d03a6757a803996e38de2a42967fb37eeaca72729271025a9e260001b81565b600160009054906101000a900473ffffffffffffffffffffffffffffffffffffffff1681565b60007f91d1777781884d03a6757a803996e38de2a42967fb37eeaca72729271025a9e260001b61096583610acd565b6040516020018083815260200182815260200192505050604051602081830303815290604052805190602001209050919050565b6000806109c830600160009054906101000a900473ffffffffffffffffffffffffffffffffffffffff1661032b565b9050600160009054906101000a900473ffffffffffffffffffffffffffffffffffffffff1673ffffffffffffffffffffffffffffffffffffffff16637737221382856040518363ffffffff1660e01b81526004018083815260200180602001828103825283818151815260200191508051906020019080838360005b83811015610a5f578082015181840152602081019050610a44565b50505050905090810190601f168015610a8c5780820380516001836020036101000a031916815260200191505b509350505050600060405180830381600087803b158015610aac57600080fd5b505af1158015610ac0573d6000803e3d6000fd5b5050505080915050919050565b60007f303132333435363738396162636465660000000000000000000000000000000060285b6000811115610b295760018103905081600f85161a815360108404935060018103905081600f85161a8153601084049350610af3565b50602860002091505091905056fea265627a7a72315820cf269d34cd28c9f99bb174de619a730d2ac75c6811900a700bb87f9b5f15df4a64736f6c63430005100032",
  "source": "pragma solidity ^0.5.0;\n\nimport \"./ENS.sol\";\n\ncontract NameResolver {\n    function setName(bytes32 node, string memory name) public;\n}\n\ncontract ReverseRegistrar {\n    // namehash('addr.reverse')\n    bytes32 public constant ADDR_REVERSE_NODE = 0x91d1777781884d03a6757a803996e38de2a42967fb37eeaca72729271025a9e2;\n\n    ENS public ens;\n    NameResolver public defaultResolver;\n\n    /**\n     * @dev Constructor\n     * @param ensAddr The address of the ENS registry.\n     * @param resolverAddr The address of the default reverse resolver.\n     */\n    constructor(ENS ensAddr, NameResolver resolverAddr) public {\n        ens = ensAddr;\n        defaultResolver = resolverAddr;\n\n        // Assign ownership of the reverse record to our deployer\n        ReverseRegistrar oldRegistrar = ReverseRegistrar(ens.owner(ADDR_REVERSE_NODE));\n        if (address(oldRegistrar) != address(0x0)) {\n            oldRegistrar.claim(msg.sender);\n        }\n    }\n\n    /**\n     * @dev Transfers ownership of the reverse ENS record associated with the\n     *      calling account.\n     * @param owner The address to set as the owner of the reverse record in ENS.\n     * @return The ENS node hash of the reverse record.\n     */\n    function claim(address owner) public returns (bytes32) {\n        return claimWithResolver(owner, address(0x0));\n    }\n\n    /**\n     * @dev Transfers ownership of the reverse ENS record associated with the\n     *      calling account.\n     * @param owner The address to set as the owner of the reverse record in ENS.\n     * @param resolver The address of the resolver to set; 0 to leave unchanged.\n     * @return The ENS node hash of the reverse record.\n     */\n    function claimWithResolver(address owner, address resolver) public returns (bytes32) {\n        bytes32 label = sha3HexAddress(msg.sender);\n        bytes32 node = keccak256(abi.encodePacked(ADDR_REVERSE_NODE, label));\n        address currentOwner = ens.owner(node);\n\n        // Update the resolver if required\n        if (resolver != address(0x0) && resolver != ens.resolver(node)) {\n            // Transfer the name to us first if it's not already\n            if (currentOwner != address(this)) {\n                ens.setSubnodeOwner(ADDR_REVERSE_NODE, label, address(this));\n                currentOwner = address(this);\n            }\n            ens.setResolver(node, resolver);\n        }\n\n        // Update the owner if required\n        if (currentOwner != owner) {\n            ens.setSubnodeOwner(ADDR_REVERSE_NODE, label, owner);\n        }\n\n        return node;\n    }\n\n    /**\n     * @dev Sets the `name()` record for the reverse ENS record associated with\n     * the calling account. First updates the resolver to the default reverse\n     * resolver if necessary.\n     * @param name The name to set for this address.\n     * @return The ENS node hash of the reverse record.\n     */\n    function setName(string memory name) public returns (bytes32) {\n        bytes32 node = claimWithResolver(address(this), address(defaultResolver));\n        defaultResolver.setName(node, name);\n        return node;\n    }\n\n    /**\n     * @dev Returns the node hash for a given account's reverse records.\n     * @param addr The address to hash\n     * @return The ENS node hash.\n     */\n    function node(address addr) public pure returns (bytes32) {\n        return keccak256(abi.encodePacked(ADDR_REVERSE_NODE, sha3HexAddress(addr)));\n    }\n\n    /**\n     * @dev An optimised function to compute the sha3 of the lower-case\n     *      hexadecimal representation of an Ethereum address.\n     * @param addr The address to hash\n     * @return The SHA3 hash of the lower-case hexadecimal encoding of the\n     *         input address.\n     */\n    function sha3HexAddress(address addr) private pure returns (bytes32 ret) {\n        addr;\n        ret; // Stop warning us about unused variables\n        assembly {\n            let lookup := 0x3031323334353637383961626364656600000000000000000000000000000000\n\n            for { let i := 40 } gt(i, 0) { } {\n                i := sub(i, 1)\n                mstore8(i, byte(and(addr, 0xf), lookup))\n                addr := div(addr, 0x10)\n                i := sub(i, 1)\n                mstore8(i, byte(and(addr, 0xf), lookup))\n                addr := div(addr, 0x10)\n            }\n\n            ret := keccak256(0, 40)\n        }\n    }\n}\n",
  "sourcePath": "@ensdomains/ens/contracts/ReverseRegistrar.sol",
  "compiler": {
    "name": "solc",
    "version": "0.5.16+commit.9c3226ce.Emscripten.clang"
  },
  "schemaVersion": "3.3.3",
  "updatedAt": "2021-01-27T16:15:24.434Z",
  "devdoc": {
    "methods": {
      "claim(address)": {
        "details": "Transfers ownership of the reverse ENS record associated with the     calling account.",
        "params": {
          "owner": "The address to set as the owner of the reverse record in ENS."
        },
        "return": "The ENS node hash of the reverse record."
      },
      "claimWithResolver(address,address)": {
        "details": "Transfers ownership of the reverse ENS record associated with the     calling account.",
        "params": {
          "owner": "The address to set as the owner of the reverse record in ENS.",
          "resolver": "The address of the resolver to set; 0 to leave unchanged."
        },
        "return": "The ENS node hash of the reverse record."
      },
      "constructor": {
        "details": "Constructor",
        "params": {
          "ensAddr": "The address of the ENS registry.",
          "resolverAddr": "The address of the default reverse resolver."
        }
      },
      "node(address)": {
        "details": "Returns the node hash for a given account's reverse records.",
        "params": {
          "addr": "The address to hash"
        },
        "return": "The ENS node hash."
      },
      "setName(string)": {
        "details": "Sets the `name()` record for the reverse ENS record associated with the calling account. First updates the resolver to the default reverse resolver if necessary.",
        "params": {
          "name": "The name to set for this address."
        },
        "return": "The ENS node hash of the reverse record."
      }
    }
  },
  "userdoc": {
    "methods": {}
  }
}